:10000000380800103D0D00009D0D00009D0D000002
:100010009D0D00009D0D00009D0D000000000000E2
:100020000000000000000000000000009D0D000026
:100030009D0D0000000000009D0D00009D0D0000C2
:100040009D0D00009D0D00009D0D00009D0D000008
:100050009D0D00009D0D00009D0D00009D0D0000F8
:100060009D0D00009D0D00009D0D00009D0D0000E8
:100070009D0D00009D0D00009D0D00009D0D0000D8
:100080009D0D00009D0D00009D0D00009D0D0000C8
:100090009D0D00009D0D00009D0D00009D0D0000B8
:1000A0009D0D00009D0D00009D0D00009D0D0000A8
:1000B0009D0D00009D0D00009D0D00009D0D000098
:1000C0009D0D00009D0D00009D0D00009D0D000088
:1000D0009D0D00009D0D00009D0D00009D0D000078
:1000E0009D0D00009D0D00009D0D00009D0D000068
:1000F0009D0D00009D0D00009D0D00009D0D000058
:100100009D0D00009D0D00009D0D00009D0D000047
:100110009D0D00009D0D00009D0D00009D0D000037
:100120009D0D000080B400AF174B0122C3F8A4203E
:10013000154B0122C3F8A820144B0122C3F89820C4
:10014000124A124BD3F8803043F48053C2F8803007
:100150000F4B8322DA600E4B27221A600C4B0022D1
:100160005A600B4A0A4B9B6843F007039360084BA5
:1001700010229A62064A064BDB6823F08003D360A4
:1001800000BFBD4680BC7047004004400080044072
:100190000080004080B400AF0A4A0A4BD3F8803098
:1001A00043F40073C2F88030074B00221A67064BF5
:1001B000064ADA60044B02225A6000BFBD4680BC8A
:1001C000704700BF00800440004001403F1901001B
:1001D00080B483B000AF7860094B02225A60084BAC
:1001E00001225A6000BF064B9A687B689A42FAD394
:1001F000034B00225A6000BF0C37BD4680BC7047DD
:100200000040014080B483B000AF0346FB7100BFE3
:10021000064B5B6903F02003002BF9D0034AFB79FE
:10022000136000BF0C37BD4680BC704700800040A3
:1002300080B483B000AFA64AA54BD3F8383223F080
:100240002003C2F83832A24B00221A6200233B601E
:1002500002E03B6801333B603B68C72BF9D99C4BFC
:1002600001221A649A4B01225A64994B00225A6463
:10027000974B01225A6400BF954B5B6C03F001035E
:10028000002BF9D0924B05229A60914A904BD3F8FB
:10029000383223F08003C2F8383200BF8C4BDB6861
:1002A00003F00103002BF9D0894B03221A67884B16
:1002B00001225A67864B00225A67854B01225A67F2
:1002C00000BF834B5B6F03F00103002BF9D0804A22
:1002D0007F4BD3F8383223F48063C2F838327C4A3B
:1002E0007B4BD3F8383223F48073C2F83832784B22
:1002F00001229A64764B0122DA64754B0022DA649B
:10030000734B0122DA6400BF714BDB6C03F0010315
:10031000002BF9D06E4B03221A6100BF6C4B5B6956
:1003200003F00103002BF9D0694B0022C3F8C02071
:10033000674B01229A67664B664AC3F88020644B7C
:100340005B6A5B0903F00F030F2B53D801A252F82D
:1003500023F000BF950300009B030000A1030000F1
:10036000A7030000AD030000B3030000B9030000C1
:10037000BF030000C5030000CB030000D103000051
:10038000D7030000DD030000E3030000E9030000E1
:10039000EF030000504B7B602CE0504B7B6029E06A
:1003A0004F4B7B6026E04F4B7B6023E04E4B7B60E6
:1003B00020E04E4B7B601DE04D4B7B601AE04D4BC7
:1003C0007B6017E04C4B7B6014E04C4B7B6011E092
:1003D0004B4B7B600EE04B4B7B600BE04A4B7B60F2
:1003E00008E04A4B7B6005E0494B7B6002E0494BEB
:1003F0007B6000BF364B5B6A03F01F035B00023378
:100400007A68B2FBF3F37B60314B1B6F03F003039D
:10041000032B00F2B78001A252F823F02D04000054
:10042000350400007B040000830400003A4B3B4A83
:100430001A60A7E0264B1B6C03F00303032B00F2AA
:100440009E8001A252F823F05904000061040000CC
:1004500069040000710400002F4B304A1A600BE061
:100460002D4B2E4A1A6007E02B4A7B68136003E08D
:10047000294B00221A6000BF81E0274A7B68136085
:1004800080E0134B1B6C03F00303032B79D801A20C
:1004900052F823F0A5040000210500004B050000E0
:1004A000750500000A4B9B6803F4C073002B03D052
:1004B000194B1A4A1A6061E0054B9B6803F01F0351
:1004C0000133164A02FB03F3134A136056E000BFE0
:1004D000008004405F000100801A060020A1070090
:1004E00000350C00E0C81000C05C1500006A180060
:1004F00040771B0080841E00C0912100009F2400D3
:1005000040AC2700E032290020402C00604D2F0035
:1005100000D4300040E1330000000010001BB700A1
:100520001F4B9B6803F4C073002B03D01D4B1E4A66
:100530001A6023E01A4B9B6803F01F0301331A4A29
:1005400002FB03F3174A136018E0154B9B6803F492
:10055000C073002B03D0134A7B6813600EE0104B6E
:100560009B6803F01F0301337A6802FB03F30D4A13
:10057000136003E00B4B00221A6000BF01E000BFD4
:1005800000E000BF064B9B6F064A1268B2FBF3F314
:10059000044A136000BF0C37BD4680BC704700BFE3
:1005A0000080044000000010001BB70000000000A5
:1005B00090B583B000AFFFF7B5FDFFF7EBFD324A12
:1005C000314BD3F8383223F01003C2F838322E4AB8
:1005D0002D4BD3F8803043F40053C2F880302B4BBE
:1005E00040F601721A602A4B02225A6700237B6090
:1005F0004FF000033B60274800F048FB234A234BA1
:100600001B6843F08073136000BF204B1B69002BF5
:10061000FBDA1E4B1B699B09C3F309037B607868F7
:1006200001F090F80346184600F020FD14A3D3E92A
:10063000002300F06FFD03460C46184621464FF09C
:100640000002154B00F090FE03460C46184621466A
:1006500000F072FF03463B601049386801F0CAF8A9
:100660000346184601F016FA034619460C4800F0F6
:100670000DFB4FF4FA70FFF7ABFDBFE7AFF300805F
:100680006666666666660A400080044000C00140F7
:1006900000400440E01A00000000904000007A444E
:1006A000401B000080B582B000AF0346FB71FB79B0
:1006B0001846FFF7A7FD00BF0837BD4680BD00BF45
:1006C00080B483B000AF78600B46FB707B68FA782B
:1006D0001A70012318460C37BD4680BC704700BF16
:1006E00080B485B000AF786039600023FB600AE019
:1006F0007B685A1C7A603A68511C396012781A700B
:10070000FB680133FB603B681B78002BF0D1FB6872
:1007100018461437BD4680BC704700BF80B586B010
:1007200000AFF8607A603B600B46FB7200237B6190
:100730007B68013B7B603B68092B1DD93B681D4AE8
:10074000A2FB0323DB08F97A7A68F868FFF7E6FF73
:1007500078617B69FA681344FB6010E0FB7A194604
:10076000F868FFF7ADFFFB680133FB607B6901337D
:100770007B617B68013B7B607B68002BEEDC39682A
:100780000C4BA3FB0123DA0813469B0013445B00C8
:10079000CA1AD3B23033DBB21946F868FFF790FFBC
:1007A00002467B6913447B617B6918461837BD4656
:1007B00080BD00BFCDCCCCCC80B586B000AFF8609A
:1007C0007A603B600B46FB7200237B613B68002B29
:1007D00003DA3B685B423B6101E03B683B617B685D
:1007E000013B7B603B69092B1FD93B68002B0CDA6E
:1007F0003B692E4AA2FB0323DB085B42F97A7A6845
:10080000F868FFF7D9FF78610AE03B69274AA2FB45
:100810000323DB08F97A7A68F868FFF7CDFF78617F
:100820007B69FA681344FB6025E03B68002B11DA12
:100830007B68013B7B600DE0FB7A1946F868FFF7A7
:100840003FFFFB680133FB607B6901337B617B68A1
:10085000013B7B607B68002BEEDC3B68002B0ADAF7
:100860002D21F868FFF72CFF02467B6913447B615A
:10087000FB680133FB6039690C4BA3FB0123DA08E9
:1008800013469B0013445B00CA1AD3B23033DBB269
:100890001946F868FFF714FF02467B6913447B6131
:1008A0007B6918461837BD4680BD00BFCDCCCCCC87
:1008B00080B588B002AFF8607A601A460B46FB72CA
:1008C0001346BB7200237B617B68013B7B603B6A04
:1008D0001B09002B20D03B6A1B09BA7AF97A0093D6
:1008E00013467A68F868FFF7E3FF02467B69134412
:1008F0007B617B69FA681344FB6010E0FB7A194660
:10090000F868FFF7DDFEFB680133FB607B690133AC
:100910007B617B68013B7B607B68002BEEDC3B6A84
:1009200003F00F03092B0BD83B6ADBB203F00F0374
:10093000DBB23033DBB21946F868FFF7C1FE19E0CD
:10094000BB7A002B0BD03B6ADBB203F00F03DBB2A8
:100950003733DBB21946F868FFF7B2FE0AE03B6AAC
:10096000DBB203F00F03DBB25733DBB21946F86892
:10097000FFF7A6FE7B6901337B617B691846183758
:10098000BD4680BD80B58AB002AFF860B9607A60BC
:100990003B600023BB6100237B61FB68002B00F000
:1009A000FC80FB6800221A70F7E07B681B78252B1F
:1009B0000BD0FB685A1CFA607A68511C7960127877
:1009C0001A707B6901337B61E7E07B6801331B7838
:1009D000252B0BD1FB685A1CFA6025221A707B6804
:1009E00002337B607B6901337B61D6E02023FB7798
:1009F0000023BB777B6801337B607B681B78302BDF
:100A000014D13023FB777B6801337B600EE0BB7F22
:100A10001A46920013445B00DAB27B681B781344D9
:100A2000DBB2303BBB777B6801337B607B681B7834
:100A30002F2B03D97B681B78392BE8D9BA7F7B69C8
:100A400013441A46BB689A4205D9BB68DAB27B697F
:100A5000DBB2D31ABB777B681B78583B202B00F2A4
:100A60008E8001A252F823F0390B00007F0B0000AA
:100A70007F0B00007F0B00007F0B00007F0B00004E
:100A80007F0B00007F0B00007F0B00007F0B00003E
:100A90007F0B0000690B0000ED0A00007F0B0000D7
:100AA0007F0B00007F0B00007F0B0000ED0A0000B1
:100AB0007F0B00007F0B00007F0B00007F0B00000E
:100AC0007F0B00007F0B00007F0B00007F0B0000FE
:100AD0007F0B0000550B00007F0B0000050B000092
:100AE0007F0B00007F0B00001D0B0000B87F3B68F0
:100AF0001A1D3A601B68F97F0246F868FFF75CFE32
:100B0000B8613FE0B87F3B681A1D3A601B68F97F07
:100B10000246F868FFF702FEB86133E0B87F3B6831
:100B20001A1D3A601B68F97F009300230246F8689B
:100B3000FFF7BEFEB86125E0B87F3B681A1D3A603A
:100B40001B68F97F009301230246F868FFF7B0FEA7
:100B5000B86117E03B681A1D3A601B681946F868CF
:100B6000FFF7BEFDB8610DE03B681A1D3A601B68D7
:100B7000DBB21946F868FFF7A3FDB86102E04FF059
:100B8000FF3325E07B6801337B60BB69FA6813445F
:100B9000FB607A69BB6913447B617B681B78002B1F
:100BA00004D07A69BB689A42FFF4FFAE7A69BB68E9
:100BB0009A4203D2FB6800221A7008E0FB68013BEE
:100BC000FB60FB6800221A707B69013B7B617B69DB
:100BD00018462037BD4680BD80B584B000AFF860B0
:100BE000B9607A607B68BA686421F868FFF7CAFE6A
:100BF000034618461037BD4680BD00BFB0B5A6B04D
:100C000000AFF860B9607A60144B07F110041D461C
:100C10000FCD0FC40FCD0FC42B68236007F1340331
:100C20007A68B9681846FFF7D7FF0346632B09DDDA
:100C30000B4B1B68DA6807F110031146184600F0E9
:100C400059F8FEE707F13403F968184600F052F846
:100C5000034618469837BD46B0BD00BF501B000084
:100C60003004001080B582B000AF78603960064B68
:100C70001B689B683A6879681846FFF7BFFF034610
:100C800018460837BD4680BD300400100FB480B54B
:100C900082B000AF07F114033B6039683869FFF791
:100CA000E1FF78607B6818460837BD46BDE88040A4
:100CB00004B0704780B582B000AF786039600C4BEB
:100CC0001B689A683B689A4205D0094B1B68DA6832
:100CD0003B689A4206D17B68DBB21846FFF7E2FC1C
:100CE0007B6801E04FF0FF3318460837BD4680BDF2
:100CF0003004001080B584B000AF78603960002304
:100D0000FB6012E07B681B7839681846FFF7D2FF5A
:100D10000346B3F1FF3F02D14FF0FF330AE0FB6817
:100D20000133FB607B6801337B607B681B78002BA1
:100D3000E8D1FB6818461037BD4680BD80B582B04B
:100D400000AF114B7B60114B3B6007E03B681A1D05
:100D50003A607A68111D796012681A603B680C4A23
:100D60009342F3D30B480C494FF000028842B8BFBE
:100D700040F8042BFADBFFF75BFAFFF719FC00BF22
:100D80000837BD4680BD00BF741B00000000001086
:100D900034040010340400103404001080B400AF98
:100DA000FEE700BF81F0004102E000BF83F0004396
:100DB00030B54FEA41044FEA430594EA050F08BFF6
:100DC00090EA020F1FBF54EA000C55EA020C7FEABA
:100DD000645C7FEA655C00F0E2804FEA5454D4EB37
:100DE0005555B8BF6D420CDD2C4480EA020281EA01
:100DF000030382EA000083EA010180EA020281EA39
:100E00000303362D88BF30BD11F0004F4FEA01318A
:100E10004FF4801C4CEA113102D0404261EB410199
:100E200013F0004F4FEA03334CEA133302D052421F
:100E300063EB430394EA050F00F0A780A4F10104DB
:100E4000D5F1200E0DDB02FA0EFC22FA05F2801815
:100E500041F1000103FA0EF2801843FA05F35941FB
:100E60000EE0A5F120050EF1200E012A03FA0EFC7A
:100E700028BF4CF0020C43FA05F3C01851EBE371A4
:100E800001F0004507D54FF0000EDCF1000C7EEBC1
:100E900000006EEB0101B1F5801F1BD3B1F5001FFF
:100EA0000CD349085FEA30004FEA3C0C04F101041E
:100EB0004FEA445212F5800F80F09A80BCF1004F47
:100EC00008BF5FEA500C50F1000041EB045141EAC9
:100ED000050130BD5FEA4C0C404141EB010111F4CA
:100EE000801FA4F10104E9D191F0000F04BF014675
:100EF0000020B1FA81F308BF2033A3F10B03B3F153
:100F000020020CDA0C3208DD02F1140CC2F10C02E2
:100F100001FA0CF021FA02F10CE002F11402D8BF40
:100F2000C2F1200C01FA02F120FA0CFCDCBF41EA0C
:100F30000C019040E41AA2BF01EB0451294330BDDB
:100F40006FEA04041F3C1CDA0C340EDC04F11404B8
:100F5000C4F1200220FA04F001FA02F340EA03008F
:100F600021FA04F345EA030130BDC4F10C04C4F1D5
:100F7000200220FA02F001FA04F340EA03002946B5
:100F800030BD21FA04F0294630BD94F0000F83F4FF
:100F9000801306BF81F480110134013D4EE77FEAE2
:100FA000645C18BF7FEA655C29D094EA050F08BF2E
:100FB00090EA020F05D054EA000C04BF194610460F
:100FC00030BD91EA030F1EBF0021002030BD5FEA53
:100FD000545C05D14000494128BF41F0004130BD7B
:100FE00014F580043CBF01F5801130BD01F00045CF
:100FF00045F0FE4141F470014FF0000030BD7FEA42
:10100000645C1ABF194610467FEA655C1CBF0B463C
:10101000024650EA013406BF52EA033591EA030F53
:1010200041F4002130BD00BF90F0000F04BF00214B
:10103000704730B54FF4806404F132044FF000057E
:101040004FF0000150E700BF90F0000F04BF0021F7
:10105000704730B54FF4806404F1320410F000455D
:1010600048BF40424FF000013EE700BF42004FEA58
:10107000E2014FEA31014FEA02701FBF12F07F43D5
:1010800093F07F4F81F06051704792F0000F14BFD2
:1010900093F07F4F704730B54FF4607401F0004516
:1010A00021F0004120E700BF50EA010208BF70476D
:1010B00030B54FF000050AE050EA010208BF704762
:1010C00030B511F0004502D5404261EB41014FF4CB
:1010D000806404F132045FEA915C3FF4DCAE4FF0CF
:1010E00003025FEADC0C18BF03325FEADC0C18BFB6
:1010F000033202EBDC02C2F1200300FA03FC20FA07
:1011000002F001FA03FE40EA0E0021FA02F1144453
:10111000C1E600BF70B54FF0FF0C4CF4E06C1CEA68
:1011200011541DBF1CEA135594EA0C0F95EA0C0FDD
:1011300000F0DEF82C4481EA030621EA4C5123EA50
:101140004C5350EA013518BF52EA033541F480117F
:1011500043F4801338D0A0FB02CE4FF00005E1FB32
:1011600002E506F00042E0FB03E54FF00006E1FB7C
:1011700003569CF0000F18BF4EF0010EA4F1FF04BF
:10118000B6F5007F64F5407404D25FEA4E0E6D41FF
:1011900046EB060642EAC62141EA55514FEAC52010
:1011A00040EA5E504FEACE2EB4F1FD0C88BFBCF58C
:1011B000E06F1ED8BEF1004F08BF5FEA500E50F13D
:1011C000000041EB045170BD06F0004646EA010103
:1011D00040EA020081EA0301B4EB5C04C2BFD4EB35
:1011E0000C0541EA045170BD41F480114FF0000E2E
:1011F000013C00F3AB8014F1360FDEBF002001F09C
:10120000004170BDC4F10004203C35DA0C341BDC15
:1012100004F11404C4F1200500FA05F320FA04F0E7
:1012200001FA05F240EA020001F0004221F000411B
:1012300010EBD37021FA04F642EB06015EEA430E8E
:1012400008BF20EAD37070BDC4F10C04C4F12005BE
:1012500000FA04F320FA05F001FA04F240EA020071
:1012600001F0004110EBD37041F100015EEA430E42
:1012700008BF20EAD37070BDC4F1200500FA05F262
:101280004EEA020E20FA04F301FA05F243EA0203E1
:1012900021FA04F001F0004121FA04F220EA0200F0
:1012A00000EBD3705EEA430E08BF20EAD37070BD36
:1012B00094F0000F0FD101F00046400041EB010116
:1012C00011F4801F08BF013CF7D041EA060195F0F8
:1012D000000F18BF704703F00046520043EB0303B2
:1012E00013F4801F08BF013DF7D043EA060370479F
:1012F00094EA0C0F0CEA135518BF95EA0C0F0CD0AA
:1013000050EA410618BF52EA4306D1D181EA0301EF
:1013100001F000414FF0000070BD50EA410606BFE9
:101320001046194652EA430619D094EA0C0F02D12E
:1013300050EA013613D195EA0C0F05D152EA033673
:101340001CBF104619460AD181EA030101F0004191
:1013500041F0FE4141F470014FF0000070BD41F0DA
:10136000FE4141F4780170BD70B54FF0FF0C4CF4B4
:10137000E06C1CEA11541DBF1CEA135594EA0C0FD3
:1013800095EA0C0F00F0A7F8A4EB050481EA030E20
:1013900052EA03354FEA013100F088804FEA033307
:1013A0004FF0805545EA131343EA12634FEA0222D5
:1013B00045EA111545EA10654FEA00260EF0004196
:1013C0009D4208BF964244F1FD0404F5407402D2E8
:1013D0005B084FEA3202B61A65EB03055B084FEA79
:1013E00032024FF480104FF4002CB6EB020E75EB76
:1013F000030E22BFB61A754640EA0C005B084FEA9E
:101400003202B6EB020E75EB030E22BFB61A75461A
:1014100040EA5C005B084FEA3202B6EB020E75EB65
:10142000030E22BFB61A754640EA9C005B084FEADD
:101430003202B6EB020E75EB030E22BFB61A7546EA
:1014400040EADC0055EA060E18D04FEA051545EAD9
:1014500016754FEA06164FEAC30343EA52734FEA82
:10146000C2025FEA1C1CC0D111F4801F0BD141EAFB
:1014700000014FF000004FF0004CB6E711F4801F60
:1014800004BF01430020B4F1FD0C88BFBCF5E06F40
:101490003FF6AFAEB5EB030C04BFB6EB020C5FEA50
:1014A000500C50F1000041EB045170BD0EF0004EA5
:1014B0004EEA113114EB5C04C2BFD4EB0C0541EAD7
:1014C000045170BD41F480114FF0000E013C90E6D4
:1014D00045EA060E8DE60CEA135594EA0C0F08BF98
:1014E00095EA0C0F3FF43BAF94EA0C0F0AD150EA97
:1014F00001347FF434AF95EA0C0F7FF425AF10462A
:1015000019462CE795EA0C0F06D152EA03353FF451
:10151000FDAE1046194622E750EA410618BF52EACE
:1015200043067FF4C5AE50EA41047FF40DAF52EAA2
:1015300043057FF4EBAE12E74FEA4102B2F1E0431C
:1015400024BFB3F5001CDCF1FE5C0DD901F0004CAA
:101550004FEAC0024CEA5070B2F1004F40EB8300FA
:1015600008BF20F00100704711F0804F21D113F126
:101570003872BCBF01F00040704741F480114FEA5F
:101580005252C2F11802C2F1200C10FA0CF320FAE8
:1015900002F018BF40F001004FEAC1234FEAD32305
:1015A00003FA0CFC40EA0C0023FA02F34FEA43036F
:1015B000CCE77FEA625307D150EA01331EBF4FF0F8
:1015C000FE4040F44000704701F0004040F0FE4013
:1015D00040F40000704700BF80F0004002E000BF10
:1015E00081F0004142001FBF5FEA410392EA030F0E
:1015F0007FEA226C7FEA236C6AD04FEA1262D2EB58
:101600001363C1BFD218414048404140B8BF5B425C
:10161000192B88BF704710F0004F40F4000020F0F5
:101620007F4018BF404211F0004F41F4000121F00B
:101630007F4118BF494292EA030F3FD0A2F1010255
:1016400041FA03FC10EB0C00C3F1200301FA03F193
:1016500000F0004302D5494260EB4000B0F5000FB6
:1016600013D3B0F1807F06D340084FEA310102F175
:101670000102FE2A51D2B1F1004F40EBC25008BF27
:1016800020F0010040EA03007047490040EB0000F1
:1016900010F4000FA2F10102EDD1B0FA80FCACF120
:1016A000080CB2EB0C0200FA0CF0AABF00EBC2501F
:1016B00052421843BCBFD0401843704792F0000F0D
:1016C00081F4000106BF80F400000132013BB5E760
:1016D0004FEA41037FEA226C18BF7FEA236C21D0D6
:1016E00092EA030F04D092F0000F08BF084670473B
:1016F00090EA010F1CBF0020704712F07F4F04D109
:10170000400028BF40F00040704712F100723CBF1B
:1017100000F50000704700F0004343F0FE4040F445
:10172000000070477FEA226216BF08467FEA236303
:101730000146420206BF5FEA412390EA010F40F4EE
:10174000800070474FF0000304E000BF10F000433A
:1017500048BF40425FEA000C08BF704743F0964321
:1017600001464FF000001CE050EA010208BF70473C
:101770004FF000030AE000BF50EA010208BF7047C3
:1017800011F0004302D5404261EB41015FEA010CD8
:1017900002BF84460146002043F0B64308BFA3F1D0
:1017A0008053A3F50003BCFA8CF2083AA3EBC253B2
:1017B00010DB01FA02FC634400FA02FCC2F12002D1
:1017C000BCF1004F20FA02F243EB020008BF20F008
:1017D0000100704702F1200201FA02FCC2F120026E
:1017E00050EA4C0021FA02F243EB020008BF20EA63
:1017F000DC7070474FF0FF0C1CEAD0521EBF1CEA91
:10180000D15392EA0C0F93EA0C0F6FD01A4480EA7E
:10181000010C400218BF5FEA41211ED04FF0006367
:1018200043EA501043EA5111A0FB01310CF0004093
:10183000B1F5000F3EBF490041EAD3715B0040EAB9
:10184000010062F17F02FD2A1DD8B3F1004F40EB89
:10185000C25008BF20F00100704790F0000F0CF05C
:10186000004C08BF49024CEA502040EA51207F3A20
:10187000C2BFD2F1FF0340EAC250704740F40000FB
:101880004FF00003013A5DDC12F1190FDCBF00F0EC
:1018900000407047C2F10002410021FA02F1C2F19A
:1018A000200200FA02FC5FEA310040F1000053EA36
:1018B0004C0308BF20EADC70704792F0000F00F084
:1018C000004C02BF400010F4000F013AF9D040EA8A
:1018D0000C0093F0000F01F0004C02BF490011F41E
:1018E000000F013BF9D041EA0C018FE70CEAD1531C
:1018F00092EA0C0F18BF93EA0C0F0AD030F0004C9C
:1019000018BF31F0004CD8D180EA010000F000404F
:10191000704790F0000F17BF90F0004F084691F00D
:10192000000F91F0004F14D092EA0C0F01D1420247
:101930000FD193EA0C0F03D14B0218BF084608D110
:1019400080EA010000F0004040F0FE4040F400005A
:10195000704740F0FE4040F4400070474FF0FF0CED
:101960001CEAD0521EBF1CEAD15392EA0C0F93EA34
:101970000C0F69D0A2EB030280EA010C49024FEA86
:10198000402037D04FF0805343EA111143EA10133F
:101990000CF000408B4238BF5B0042F17D024FF4F7
:1019A000000C8B4224BF5B1A40EA0C00B3EB510FD2
:1019B00024BFA3EB510340EA5C00B3EB910F24BFBB
:1019C000A3EB910340EA9C00B3EBD10F24BFA3EB40
:1019D000D10340EADC001B0118BF5FEA1C1CE0D108
:1019E000FD2A3FF650AF8B4240EBC25008BF20F0BB
:1019F000010070470CF0004C4CEA50207F32C2BF0F
:101A0000D2F1FF0340EAC250704740F400004FF0AB
:101A10000003013A37E792F0000F00F0004C02BFDC
:101A2000400010F4000F013AF9D040EA0C0093F0A6
:101A3000000F01F0004C02BF490011F4000F013B00
:101A4000F9D041EA0C0195E70CEAD15392EA0C0F68
:101A500008D142027FF47DAF93EA0C0F7FF470AFA0
:101A6000084676E793EA0C0F04D14B023FF44CAFE3
:101A700008466EE730F0004C18BF31F0004CCAD178
:101A800030F000427FF45CAF31F000437FF43CAFB4
:101A90005FE700BF4FEA4002B2F1FE4F0FD34FF0B5
:101AA0009E03B3EB12620DD94FEA002343F00043CB
:101AB00010F0004F23FA02F018BF404270474FF079
:101AC0000000704712F1610F01D1420205D110F000
:101AD000004008BF6FF0004070474FF000007047B3
:101AE0004F43467265616B732E636F6D204C50439C
:101AF0003133347820414443205475746F726961E6
:101B00006C204578616D706C6520312E0A0D536F25
:101B100066747761726520436F6E74726F6C6C656A
:101B20006420414443204D6F6465206F6E20414422
:101B300030204368616E6E656C2E0A0D0000000057
:101B4000414430203D2025646D560A0D0000000000
:101B5000737464696F2E633A20696E637265617392
:101B600065204D41585F535452494E475F53495A7F
:041B7000450A0D0015
:101B7400001BB7000000000000000000000000008F
:101B84000100000000000000000000000000000050
:101B94000000000000000000000000000000000041
:101BA4000000000000000000000000000000000031
:101BB4000000000000000000000000000000000021
:101BC4000000000000000000000000000000000011
:041FA4000800001021
:00000001FF
