:1000000038080010550C0000B50C0000B50C0000BD
:10001000B50C0000B50C0000B50C0000000000009D
:10002000000000000000000000000000B50C00000F
:10003000B50C000000000000B50C0000B50C00007D
:10004000B50C0000B50C0000B50C0000B50C0000AC
:10005000B50C0000B50C0000B50C0000B50C00009C
:10006000B50C0000B50C0000B50C0000B50C00008C
:10007000B50C0000B50C0000B50C0000B50C00007C
:10008000B50C0000B50C0000B50C0000B50C00006C
:10009000B50C0000B50C0000B50C0000B50C00005C
:1000A000B50C0000B50C0000B50C0000B50C00004C
:1000B000B50C0000B50C0000B50C0000B50C00003C
:1000C000B50C0000B50C0000B50C0000B50C00002C
:1000D000B50C0000B50C0000B50C0000B50C00001C
:1000E000B50C0000B50C0000B50C0000B50C00000C
:1000F000B50C0000B50C0000B50C0000B50C0000FC
:10010000B50C0000B50C0000B50C0000B50C0000EB
:10011000B50C0000B50C0000B50C0000B50C0000DB
:10012000B50C000080B483B000AFA64AA54BD3F84D
:10013000383223F02003C2F83832A24B00221A6270
:1001400000233B6002E03B6801333B603B68C72B08
:10015000F9D99C4B01221A649A4B01225A64994B9B
:1001600000225A64974B01225A6400BF954B5B6C86
:1001700003F00103002BF9D0924B05229A60914ABB
:10018000904BD3F8383223F08003C2F8383200BFE6
:100190008C4BDB6803F00103002BF9D0894B032261
:1001A0001A67884B01225A67864B00225A67854B93
:1001B00001225A6700BF834B5B6F03F00103002BE2
:1001C000F9D0804A7F4BD3F8383223F48063C2F8E9
:1001D00038327C4A7B4BD3F8383223F48073C2F830
:1001E0003832784B01229A64764B0122DA64754BDF
:1001F0000022DA64734B0122DA6400BF714BDB6CBE
:1002000003F00103002BF9D06E4B03221A6100BFEB
:100210006C4B5B6903F00103002BF9D0694B0022A2
:10022000C3F8C020674B01229A67664B664AC3F841
:100230008020644B5B6A5B0903F00F030F2B53D8DC
:1002400001A252F823F000BF890200008F020000D3
:10025000950200009B020000A1020000A70200001E
:10026000AD020000B3020000B9020000BF020000AE
:10027000C5020000CB020000D1020000D70200003E
:10028000DD020000E3020000504B7B602CE0504B8D
:100290007B6029E04F4B7B6026E04F4B7B6023E087
:1002A0004E4B7B6020E04E4B7B601DE04D4B7B60F6
:1002B0001AE04D4B7B6017E04C4B7B6014E04C4BDD
:1002C0007B6011E04B4B7B600EE04B4B7B600BE0A7
:1002D0004A4B7B6008E04A4B7B6005E0494B7B6002
:1002E00002E0494B7B6000BF364B5B6A03F01F03A3
:1002F0005B0002337A68B2FBF3F37B60314B1B6F18
:1003000003F00303032B00F2B78001A252F823F09D
:1003100021030000290300006F03000077030000A1
:100320003A4B3B4A1A60A7E0264B1B6C03F00303D1
:10033000032B00F29E8001A252F823F04D0300002F
:10034000550300005D030000650300002F4B304A99
:100350001A600BE02D4B2E4A1A6007E02B4A7B688F
:10036000136003E0294B00221A6000BF81E0274A96
:100370007B68136080E0134B1B6C03F00303032BBB
:1003800079D801A252F823F0990300001504000067
:100390003F040000690400000A4B9B6803F4C0732B
:1003A000002B03D0194B1A4A1A6061E0054B9B6879
:1003B00003F01F030133164A02FB03F3134A1360D1
:1003C00056E000BF008004405F000100801A060074
:1003D00020A1070000350C00E0C81000C05C15002B
:1003E000006A180040771B0080841E00C091210025
:1003F000009F240040AC2700E032290020402C0060
:10040000604D2F0000D4300040E1330000000010A8
:10041000001BB7001F4B9B6803F4C073002B03D075
:100420001D4B1E4A1A6023E01A4B9B6803F01F0302
:1004300001331A4A02FB03F3174A136018E0154B05
:100440009B6803F4C073002B03D0134A7B681360CE
:100450000EE0104B9B6803F01F0301337A6802FB28
:1004600003F30D4A136003E00B4B00221A6000BF38
:1004700001E000BF00E000BF064B9B6F064A126818
:10048000B2FBF3F3044A136000BF0C37BD4680BCD7
:10049000704700BF0080044000000010001BB70040
:1004A00080B400AF174B0122C3F8A420154B0122E2
:1004B000C3F8A820144B0122C3F89820124A124B0B
:1004C000D3F8803043F48053C2F880300F4B83223E
:1004D000DA600E4B27221A600C4B00225A600B4A3E
:1004E0000A4B9B6843F007039360084B10229A6203
:1004F000064A064BDB6823F08003D36000BFBD468D
:1005000080BC7047004004400080044000800040F0
:1005100080B483B000AF0346FB7100BF064B5B693C
:1005200003F02003002BF9D0034AFB79136000BFCE
:100530000C37BD4680BC704700800040B0B588B025
:1005400000AFFFF7ADFF40F23F53FB616FF0620376
:10055000BB6140F2CA337B61104B3C461D460FCD58
:100560000FC42B6823700E4800F01CFB0D4800F0F0
:1005700019FB0D4800F016FBF9690C4800F012FB5E
:10058000B9690B4800F00EFB79690A4800F00AFBD4
:100590003B461946084800F005FBFEE77C0D0000CD
:1005A000BC0C0000EC0C0000080D0000400D000029
:1005B0004C0D0000580D00006C0D000080B582B09D
:1005C00000AF0346FB71FB791846FFF7A1FF00BFA0
:1005D0000837BD4680BD00BF80B483B000AF7860EF
:1005E0000B46FB707B68FA781A70012318460C37AB
:1005F000BD4680BC704700BF80B485B000AF786056
:1006000039600023FB600AE07B685A1C7A603A6814
:10061000511C396012781A70FB680133FB603B682B
:100620001B78002BF0D1FB6818461437BD4680BC00
:10063000704700BF80B586B000AFF8607A603B605D
:100640000B46FB7200237B617B68013B7B603B6850
:10065000092B1DD93B681D4AA2FB0323DB08F97A4D
:100660007A68F868FFF7E6FF78617B69FA681344F7
:10067000FB6010E0FB7A1946F868FFF7ADFFFB68F6
:100680000133FB607B6901337B617B68013B7B60ED
:100690007B68002BEEDC39680C4BA3FB0123DA08E6
:1006A00013469B0013445B00CA1AD3B23033DBB24B
:1006B0001946F868FFF790FF02467B6913447B6197
:1006C0007B6918461837BD4680BD00BFCDCCCCCC69
:1006D00080B586B000AFF8607A603B600B46FB7275
:1006E00000237B613B68002B03DA3B685B423B6184
:1006F00001E03B683B617B68013B7B603B69092B08
:100700001FD93B68002B0CDA3B692E4AA2FB03235E
:10071000DB085B42F97A7A68F868FFF7D9FF7861FD
:100720000AE03B69274AA2FB0323DB08F97A7A68CF
:10073000F868FFF7CDFF78617B69FA681344FB60C6
:1007400025E03B68002B11DA7B68013B7B600DE004
:10075000FB7A1946F868FFF73FFFFB680133FB603F
:100760007B6901337B617B68013B7B607B68002B8D
:10077000EEDC3B68002B0ADA2D21F868FFF72CFF2E
:1007800002467B6913447B61FB680133FB60396976
:100790000C4BA3FB0123DA0813469B0013445B00B8
:1007A000CA1AD3B23033DBB21946F868FFF714FF28
:1007B00002467B6913447B617B6918461837BD4646
:1007C00080BD00BFCDCCCCCC80B588B002AFF86086
:1007D0007A601A460B46FB721346BB7200237B619C
:1007E0007B68013B7B603B6A1B09002B20D03B6A86
:1007F0001B09BA7AF97A009313467A68F868FFF70A
:10080000E3FF02467B6913447B617B69FA6813440A
:10081000FB6010E0FB7A1946F868FFF7DDFEFB6825
:100820000133FB607B6901337B617B68013B7B604B
:100830007B68002BEEDC3B6A03F00F03092B0BD81F
:100840003B6ADBB203F00F03DBB23033DBB2194695
:10085000F868FFF7C1FE19E0BB7A002B0BD03B6AAA
:10086000DBB203F00F03DBB23733DBB21946F868B3
:10087000FFF7B2FE0AE03B6ADBB203F00F03DBB224
:100880005733DBB21946F868FFF7A6FE7B690133E0
:100890007B617B6918461837BD4680BD80B58AB03C
:1008A00002AFF860B9607A603B600023BB6100234F
:1008B0007B61FB68002B00F0FC80FB6800221A7053
:1008C000F7E07B681B78252B0BD0FB685A1CFA607D
:1008D0007A68511C796012781A707B6901337B61E8
:1008E000E7E07B6801331B78252B0BD1FB685A1C92
:1008F000FA6025221A707B6802337B607B690133C2
:100900007B61D6E02023FB770023BB777B68013334
:100910007B607B681B78302B14D13023FB777B689E
:1009200001337B600EE0BB7F1A46920013445B00EC
:10093000DAB27B681B781344DBB2303BBB777B6851
:1009400001337B607B681B782F2B03D97B681B7876
:10095000392BE8D9BA7F7B6913441A46BB689A429F
:1009600005D9BB68DAB27B69DBB2D31ABB777B6887
:100970001B78583B202B00F28E8001A252F823F006
:10098000510A0000970A0000970A0000970A000029
:10099000970A0000970A0000970A0000970A0000D3
:1009A000970A0000970A0000970A0000810A0000D9
:1009B000050A0000970A0000970A0000970A000045
:1009C000970A0000050A0000970A0000970A000035
:1009D000970A0000970A0000970A0000970A000093
:1009E000970A0000970A0000970A00006D0A0000AD
:1009F000970A00001D0A0000970A0000970A0000ED
:100A0000350A0000B87F3B681A1D3A601B68F97F01
:100A10000246F868FFF75CFEB8613FE0B87F3B68CC
:100A20001A1D3A601B68F97F0246F868FFF702FE5C
:100A3000B86133E0B87F3B681A1D3A601B68F97FE4
:100A4000009300230246F868FFF7BEFEB86125E078
:100A5000B87F3B681A1D3A601B68F97F0093012339
:100A60000246F868FFF7B0FEB86117E03B681A1D50
:100A70003A601B681946F868FFF7BEFDB8610DE0E3
:100A80003B681A1D3A601B68DBB21946F868FFF72D
:100A9000A3FDB86102E04FF0FF3325E07B6801332E
:100AA0007B60BB69FA681344FB607A69BB691344D5
:100AB0007B617B681B78002B04D07A69BB689A4203
:100AC000FFF4FFAE7A69BB689A4203D2FB6800224A
:100AD0001A7008E0FB68013BFB60FB6800221A709B
:100AE0007B69013B7B617B6918462037BD4680BD31
:100AF00080B584B000AFF860B9607A607B68BA688E
:100B00006421F868FFF7CAFE034618461037BD4651
:100B100080BD00BFB0B5A6B000AFF860B9607A6024
:100B2000144B07F110041D460FCD0FC40FCD0FC499
:100B30002B68236007F134037A68B9681846FFF719
:100B4000D7FF0346632B09DD0B4B1B68DA6807F1FF
:100B500010031146184600F059F8FEE707F1340378
:100B6000F968184600F052F8034618469837BD4613
:100B7000B0BD00BF900D00003004001080B582B001
:100B800000AF78603960064B1B689B683A687968EB
:100B90001846FFF7BFFF034618460837BD4680BD1D
:100BA000300400100FB480B582B000AF07F1140319
:100BB0003B6039683869FFF7E1FF78607B68184669
:100BC0000837BD46BDE8804004B0704780B582B0AC
:100BD00000AF786039600C4B1B689A683B689A429A
:100BE00005D0094B1B68DA683B689A4206D17B68DE
:100BF000DBB21846FFF7E2FC7B6801E04FF0FF3301
:100C000018460837BD4680BD3004001080B584B05A
:100C100000AF786039600023FB6012E07B681B78CE
:100C200039681846FFF7D2FF0346B3F1FF3F02D100
:100C30004FF0FF330AE0FB680133FB607B68013350
:100C40007B607B681B78002BE8D1FB681846103767
:100C5000BD4680BD80B582B000AF114B7B60114BAB
:100C60003B6007E03B681A1D3A607A68111D7960A5
:100C700012681A603B680C4A9342F3D30B480C4944
:100C80004FF000028842B8BF40F8042BFADBFFF7B0
:100C900049FAFFF753FC00BF0837BD4680BD00BFCF
:100CA000B40D0000000000103404001034040010E3
:100CB0003404001080B400AFFEE700BF48692E2066
:100CC0004920616D207072696E74662829207365F1
:100CD0006E64696E67206F7574707574206F7665C9
:100CE000722055415254210A0D00000049206861CC
:100CF0007665206265656E2063616C6C6564206654
:100D00006F723A0A0D0000004F43467265616B73C3
:100D10002E636F6D202D207265746172676574207B
:100D20007072696E7466282920696E20436F494489
:100D300045207475746F7269616C2E0A0D00000095
:100D40006E756D203D2025640A0D00006E756D32B4
:100D5000203D2025690A0D006E756D68286865784C
:100D600029203D2025580A0D000000007374726987
:100D70006E6731203D2025730A0D000054686973A9
:100D8000206973206120537472696E67000000004F
:100D9000737464696F2E633A20696E637265617360
:100DA00065204D41585F535452494E475F53495A4D
:040DB000450A0D00E3
:100DB400001BB7000000000000000000000000005D
:100DC400010000000000000000000000000000001E
:100DD400000000000000000000000000000000000F
:100DE40000000000000000000000000000000000FF
:100DF40000000000000000000000000000000000EF
:100E040000000000000000000000000000000000DE
:0411E40008000010EF
:00000001FF
