:100000000804001089050000E5050000E505000072
:10001000E5050000E5050000E50500000000000022
:10002000000000000000000000000000E5050000E6
:10003000E505000000000000E5050000E505000002
:10004000E5050000E5050000E5050000E505000008
:10005000E5050000E5050000E5050000E5050000F8
:10006000E5050000E5050000E5050000E5050000E8
:10007000E5050000E5050000E5050000E5050000D8
:10008000E5050000E5050000E5050000E5050000C8
:10009000E5050000E5050000E5050000E5050000B8
:1000A000E5050000E5050000E5050000E5050000A8
:1000B000E5050000E5050000E5050000E505000098
:1000C000E5050000E5050000E5050000E505000088
:1000D000E5050000E5050000E5050000E505000078
:1000E000E5050000E5050000E505000051050000FC
:1000F000E5050000E5050000E5050000E505000058
:10010000E5050000E5050000E5050000E505000047
:10011000E5050000E5050000E5050000E505000037
:10012000E505000080B483B000AFA64AA54BD3F824
:10013000383223F02003C2F83832A24B00221A6270
:1001400000233B6002E03B6801333B603B68C72B08
:10015000F9D99C4B01221A649A4B01225A64994B9B
:1001600000225A64974B01225A6400BF954B5B6C86
:1001700003F00103002BF9D0924B05229A60914ABB
:10018000904BD3F8383223F08003C2F8383200BFE6
:100190008C4BDB6803F00103002BF9D0894B032261
:1001A0001A67884B01225A67864B00225A67854B93
:1001B00001225A6700BF834B5B6F03F00103002BE2
:1001C000F9D0804A7F4BD3F8383223F48063C2F8E9
:1001D00038327C4A7B4BD3F8383223F48073C2F830
:1001E0003832784B01229A64764B0122DA64754BDF
:1001F0000022DA64734B0122DA6400BF714BDB6CBE
:1002000003F00103002BF9D06E4B03221A6100BFEB
:100210006C4B5B6903F00103002BF9D0694B0022A2
:10022000C3F8C020674B01229A67664B664AC3F841
:100230008020644B5B6A5B0903F00F030F2B53D8DC
:1002400001A252F823F000BF890200008F020000D3
:10025000950200009B020000A1020000A70200001E
:10026000AD020000B3020000B9020000BF020000AE
:10027000C5020000CB020000D1020000D70200003E
:10028000DD020000E3020000504B7B602CE0504B8D
:100290007B6029E04F4B7B6026E04F4B7B6023E087
:1002A0004E4B7B6020E04E4B7B601DE04D4B7B60F6
:1002B0001AE04D4B7B6017E04C4B7B6014E04C4BDD
:1002C0007B6011E04B4B7B600EE04B4B7B600BE0A7
:1002D0004A4B7B6008E04A4B7B6005E0494B7B6002
:1002E00002E0494B7B6000BF364B5B6A03F01F03A3
:1002F0005B0002337A68B2FBF3F37B60314B1B6F18
:1003000003F00303032B00F2B78001A252F823F09D
:1003100021030000290300006F03000077030000A1
:100320003A4B3B4A1A60A7E0264B1B6C03F00303D1
:10033000032B00F29E8001A252F823F04D0300002F
:10034000550300005D030000650300002F4B304A99
:100350001A600BE02D4B2E4A1A6007E02B4A7B688F
:10036000136003E0294B00221A6000BF81E0274A96
:100370007B68136080E0134B1B6C03F00303032BBB
:1003800079D801A252F823F0990300001504000067
:100390003F040000690400000A4B9B6803F4C0732B
:1003A000002B03D0194B1A4A1A6061E0054B9B6879
:1003B00003F01F030133164A02FB03F3134A1360D1
:1003C00056E000BF008004405F000100801A060074
:1003D00020A1070000350C00E0C81000C05C15002B
:1003E000006A180040771B0080841E00C091210025
:1003F000009F240040AC2700E032290020402C0060
:10040000604D2F0000D4300040E1330000000010A8
:10041000001BB7001F4B9B6803F4C073002B03D075
:100420001D4B1E4A1A6023E01A4B9B6803F01F0302
:1004300001331A4A02FB03F3174A136018E0154B05
:100440009B6803F4C073002B03D0134A7B681360CE
:100450000EE0104B9B6803F01F0301337A6802FB28
:1004600003F30D4A136003E00B4B00221A6000BF38
:1004700001E000BF00E000BF064B9B6F064A126818
:10048000B2FBF3F3044A13600C37BD465DF8047BFE
:10049000704700BF0080044000000010001BB70040
:1004A00080B483B000AF0346FB71084997F9073069
:1004B0005B09FA7902F01F02012000FA02F241F80A
:1004C00023200C37BD465DF8047B704700E100E057
:1004D00080B500AF4FF0A0414FF0A04303F50043BB
:1004E0001B6843F0800201F500431A6000F002F837
:1004F000FEE700BF80B500AF124A124BD3F8803040
:1005000043F40073C2F880300F4B00221A670E4B81
:100510000E4ADA600C4B4FF4FA729A610A4A0A4B9F
:100520005B6943F003035361074A074B5B6843F081
:10053000020353602B20FFF7B3FF034B01225A60E5
:1005400080BD00BF00800440004001403F19010011
:1005500080B400AF0B4A0B4B1B6843F001031360E0
:100560004FF0A0414FF0A04303F57F533C331B688D
:1005700083F0800201F57F533C331A60BD465DF87D
:10058000047B70470040014080B582B000AF104B43
:100590007B60104B3B6007E03B681A1D3A607A684D
:1005A000111D796012681A603B680B4A9342F3D3BD
:1005B0000A480B494FF000028842B8BF40F8042BAC
:1005C000FADBFFF7AFFDFFF783FF0837BD4680BDBD
:1005D000F4050000000000100400001004000010EA
:0C05E0000400001080B400AFFEE700BF74
:0805EC00B4FEFF7F01000000D6
:0405F400001BB70031
:00000001FF
